[
["The following are deserialized transactions which are valid."],
["They are in the form"],
["[[[prevout hash,prevout index,prevout scriptPubKey],[input 2],...],"],
["serializedTransaction,verifyFlags]"],
["Objects that are only a single string (like this one) are ignored"],

["The following tests for the presence of a bug in the handling of SIGHASH_SINGLE"],
["It results in signing the constant 1,instead of something generated based on the transaction,"],
["when the input doing the signing has an index greater than the maximum output index"],
[[["0000000000000000000000000000000000000000000000000000000000000100",0,"DUP HASH160 0x14 0xe52b482f2faa8ecbf0db344f93c84ac908557f33 EQUALVERIFY CHECKSIG"],["0000000000000000000000000000000000000000000000000000000000000200",0,"1"]],"01000000dc4a674d020002000000000000000000000000000000000000000000000000000000000000000000000151ffffffff0001000000000000000000000000000000000000000000000000000000000000000000006b483045022100c9cdd08798a28af9d1baf44a6c77bcc7e279f47dc487c8c899911bc48feaffcc0220503c5c50ae3998a733263c5c0f7061b483e2b56c4c41b456e7d2f5a78a74c077032102d5c25adb51b61339d2b05315791e21bbe80ea470a49db0135720983c905aace0ffffffff010000000000000000015100000000","P2SH"],

["An invalid P2SH Transaction"],
[[["0000000000000000000000000000000000000000000000000000000000000100",0,"HASH160 0x14 0x7a052c840ba73af26755de42cf01cc9e0a49fef0 EQUAL"]],"01000000dc4a674d0100010000000000000000000000000000000000000000000000000000000000000000000009085768617420697320ffffffff010000000000000000015100000000","NONE"],

["Coinbase of size 2"],
["Note the input is just required to make the tester happy"],
[[["0000000000000000000000000000000000000000000000000000000000000000",-1,"1"]],"01000000dc4a674d010000000000000000000000000000000000000000000000000000000000000000ffffffff025151ffffffff010000000000000000015100000000","P2SH"],

["Coinbase of size 100"],
["Note the input is just required to make the tester happy"],
[[["0000000000000000000000000000000000000000000000000000000000000000",-1,"1"]],"01000000dc4a674d010000000000000000000000000000000000000000000000000000000000000000ffffffff6451515151515151515151515151515151515151515151515151515151515151515151515151515151515151515151515151515151515151515151515151515151515151515151515151515151515151515151515151515151515151515151515151515151ffffffff010000000000000000015100000000","P2SH"],

["Empty pubkey"],
[[["229257c295e7f555421c1bfec8538dd30a4b5c37c1c8810bbe83cafa7811652c",0,"0x00 CHECKSIG NOT"]],"01000000a60da851012c651178faca83be0b81c8c1375c4b0ad38d53c8fe1b1c4255f5e795c25792220000000049483045022100d6044562284ac76c985018fc4a90127847708c9edb280996c507b28babdc4b2a02203d74eca3f1a4d1eea7ff77b528fde6d5dc324ec2dbfdb964ba885f643b9704cd01ffffffff010100000000000000232102c2410f8891ae918cab4ffc4bb4a3b0881be67c7a1e7faa8b5acf9ab8932ec30cac00000000","P2SH"],

["Empty signature"],
[[["9ca93cfd8e3806b9d9e2ba1cf64e3cc6946ee0119670b1796a09928d14ea25f7",0,"0x21 0x028a1d66975dbdf97897e3a4aef450ebeb5b5293e4a0b4a6d3a2daaa0b2b110e02 CHECKSIG NOT"]],"01000000a60da85101f725ea148d92096a79b1709611e06e94c63c4ef61cbae2d9b906388efd3ca99c000000000100ffffffff0101000000000000002321028a1d66975dbdf97897e3a4aef450ebeb5b5293e4a0b4a6d3a2daaa0b2b110e02ac00000000","P2SH"],

[[["ebbcf4bfce13292bd791d6a65a2a858d59adbf737e387e40370d4e64cc70efb0",0,"2 0x21 0x033bcaa0a602f0d44cc9d5637c6e515b0471db514c020883830b7cefd73af04194 0x21 0x03a88b326f8767f4f192ce252afe33c94d25ab1d24f27f159b3cb3aa691ffe1423 2 CHECKMULTISIG NOT"]],"01000000a60da85101b0ef70cc644e0d37407e387e73bfad598d852a5aa6d691d72b2913cebff4bceb000000004a00473044022068cd4851fc7f9a892ab910df7a24e616f293bcb5c5fbdfbc304a194b26b60fba022078e6da13d8cb881a22939b952c24f88b97afd06b4c47a47d7f804c9a352a6d6d0100ffffffff0101000000000000002321033bcaa0a602f0d44cc9d5637c6e515b0471db514c020883830b7cefd73af04194ac00000000","P2SH"],

[[["ba4cd7ae2ad4d4d13ebfc8ab1d93a63e4a6563f25089a18bf0fc68f282aa88c1",0,"2 0x21 0x037c615d761e71d38903609bf4f46847266edc2fb37532047d747ba47eaae5ffe1 0x21 0x02edc823cd634f2c4033d94f5755207cb6b60c4b1f1f056ad7471c47de5f2e4d50 2 CHECKMULTISIG NOT"]],"01000000a60da85101c188aa82f268fcf08ba18950f263654a3ea6931dabc8bf3ed1d4d42aaed74cba000000004b0000483045022100940378576e069aca261a6b26fb38344e4497ca6751bb10905c76bb689f4222b002204833806b014c26fd801727b792b1260003c55710f87c5adbd7a9cb57446dbc9801ffffffff0101000000000000002321037c615d761e71d38903609bf4f46847266edc2fb37532047d747ba47eaae5ffe1ac00000000","P2SH"],

["Make diffs cleaner by leaving a comment here without comma at the end"]
]
